:020000040800F2
:1000000028080020E1020008792F00087B2F000853
:100010007F2F0008832F0008872F000800000000B2
:100020000000000000000000000000008B2F00080E
:100030008D2F0008000000008F2F0008912F00086E
:10004000FB020008FB020008FB020008FB0200089C
:10005000FB020008FB020008FB020008FB0200088C
:10006000FB020008FB020008FB020008FB0200087C
:10007000FB020008FB020008FB020008FB0200086C
:10008000FB020008FB020008FB020008FB0200085C
:10009000FB020008FB020008FB020008FB0200084C
:1000A000FB020008FB020008FB020008FB0200083C
:1000B000FB020008FB020008D92E0008FB02000822
:1000C000FB020008FB020008FB020008FB0200081C
:1000D000FB020008AF26000839200008FB020008D8
:1000E000FB020008FB020008FB020008DFF80CD04E
:1000F00005F00EFB00480047CD2C00082808002022
:100100000CB50020019000906C48006840F48030ED
:100110006A49086000BF6948006800F40030009038
:100120000198401C0190009818B90198B0F5A06F93
:10013000F1D16248006800F4003010B10120009055
:1001400001E0002000900098012843D15C4800683D
:1001500040F010005A4908600846006820F003008B
:1001600008600846006840F0020008605348406894
:10017000524948600846406848600846406840F474
:10018000806048600846406820F47C10486008465B
:10019000406840F4E81048600846006840F080700D
:1001A000086000BF4548006800F000700028F9D0E2
:1001B0004248406820F003004049486008464068D3
:1001C00040F00200486000BF3C48406800F00C006E
:1001D0000828F9D10CBD10B5FFF792FF10BD10B57E
:1001E0003648006840F0010034490860084640681D
:1001F000344908403149486008460068324908409F
:100200002E4908600846006820F4802008600846EF
:10021000406820F4FE0048604FF41F008860FFF73C
:10022000DAFF4FF000602949086010BD10B50021C9
:1002300000200022214B5B6803F00C0121B104294E
:1002400006D0082928D107E0214B224C236027E063
:100250001F4B204C236023E0184B5B6803F47010A5
:10026000164B5B6803F48032022303EB904022B903
:10027000194B4343174C23600DE0104B5B6803F4AC
:10028000003323B1144B4343124C236003E0104B63
:100290004343104C236003E00D4B0E4C236000BF22
:1002A00000BF064B5B68C3F303130C4CE15C094BC6
:1002B0001B68CB40074C236010BD000000100240BB
:1002C000002002400000FFF8FFFFF6FE08ED00E00E
:1002D00000127A000000002000093D000400002008
:1002E0000648804706480047FEE7FEE7FEE7FEE7D0
:1002F000FEE7FEE7FEE7FEE7FEE7FEE7DF010008B8
:10030000ED0000084FF0E021096921F004014FF0F1
:10031000E0221161C21700EB5272C2F3C702234BF5
:100320001A701946097801EB4102C2EBC1114FF670
:10033000FF7202EAC1011E4A1180704701461C4A41
:1003400012884A434FF0E0235A6100229A61012249
:100350001A6100BF4FF0E022106900F001021AB1EB
:1003600000F48032002AF5D000224FF0E0231A6119
:100370009A61704701460D4A12784A434FF0E023D4
:100380005A6100229A6101221A6100BF4FF0E022F7
:10039000106900F001021AB100F48032002AF5D091
:1003A00000224FF0E0231A619A6170471400002088
:1003B0001600002008B50121082003F075F9C020BF
:1003C000ADF8000010208DF8030003208DF8020026
:1003D0006946FD4802F0ACFE08BD10B5FA48006859
:1003E00020F07040F84908600846006840F040502E
:1003F00008600120F5490860F549C1F8980104201A
:10040000FFF7B8FF0020F14908600420FFF7B2FFB2
:100410000020EF49C1F8980110BD10B5EA48006806
:1004200020F07040E84908600846006840F04050FD
:1004300008600020E549091F0860E549C1F89C01F2
:100440000420FFF797FF0120E049091F0860E049F9
:10045000C1F89C010420FFF78DFF10BD10B50024EA
:10046000D948006820F07040D74908600846006805
:1004700040F0004008600120D4490860FFF77AFF8F
:100480000120D349C1F89801FFF774FF0AE0601C0E
:10049000C4B2322C03DDFFF7C0FF012010BD0120E4
:1004A000FFF768FFC948803800680028EFD1C749C6
:1004B000091F086000BFF1E710B50020C349091FFC
:1004C0000860C148006820F07040BF4908600846D5
:1004D000006840F0405008600020BD49C1F89C0110
:1004E0000220FFF747FF0120B849091F08600220DA
:1004F000FFF740FF0020B649C1F8980110BD10B5C4
:100500000020B249091F0860AF48006820F0704021
:10051000AD4908600846006840F04050086001207E
:10052000AB49C1F89C010220FFF724FF0120A74935
:10053000091F08600220FFF71DFF0020A449C1F831
:10054000980110BD70B504469F48006820F07040C7
:100550009D4908600846006840F04050086000204F
:100560009A49091F0860002517E0E00997490860CB
:100570006006040E0120FFF7FDFE01209449C1F83A
:1005800098010220FFF7F6FE00209049091F08603D
:100590000120FFF7EFFE681CC5B2082DE5DB70BD3A
:1005A00070B5054600248848006820F070408649F0
:1005B00008600846006840F000400860002617E028
:1005C00000208249091F08600220FFF7D3FE0120A6
:1005D0007F49C1F898016006040E7C4880380068A5
:1005E00008B1601CC4B20220FFF7C4FE701CC6B282
:1005F000082EE5DB15B1FFF75FFF01E0FFF77FFF96
:10060000204670BD70B505460E460024FFF7E5FE96
:100610002846FFF797FF641CFFF720FF3046FFF7DF
:1006200091FF641CFFF71AFFFFF7D7FE691CC8B2E1
:10063000FFF788FF641CFFF711FF0020FFF7B0FFF2
:100640000446FFF7EAFE204670BD2DE9F04107465B
:10065000884615461E460024FFF7BFFE3846FFF7C2
:1006600071FFFFF7FBFE4046FFF76CFFFFF7F6FE5A
:10067000FFF7B3FE791CC8B2FFF764FFFFF7EEFE89
:1006800000BF0DE0681EA04204D00120FFF788FFE4
:10069000305503E00020FFF783FF3055601CC4B2E3
:1006A000AC42EFDBFFF7B9FE2046BDE8F0812DE953
:1006B000F04180460D4616461F460024FFF78DFE8A
:1006C0004046FFF73FFFFFF7C9FE2846FFF73AFF16
:1006D000FFF7C4FE00BF06E0385DFFF733FFFFF70A
:1006E000BDFE601CC4B2B442F6DBFFF796FE0120EB
:1006F000BDE8F08170B505460E46144631462846E1
:10070000FFF780FF2070012070BD37B504460D460D
:1007100002AB012229462046FFF7C9FF3EBD2DE965
:10072000F8430746884614461D46089E6A464146D9
:100730003846FFF7DFFF28B3601CFF2101FA00F005
:10074000C4F108012944491EFF220A41104300F068
:10075000FF09C5F1080006FA00F0C6B2C4F10700AF
:1007600006419DF8000000EA090000909DF8000095
:10077000304300909DF8002041463846FFF7C5FF02
:10078000BDE8F8830020FBE7F8B506460F4614469F
:100790001D466A4639463046FFF7ACFF2DB10120B1
:1007A000A0409DF80010084305E00120A0409DF8FE
:1007B000001021EA0000C0B200909DF800203946E8
:1007C0003046FFF7A2FFF8BD000C01409C8121429A
:1007D000008021420EB50121032002F072FF68461D
:1007E00003F0C6FB4FF6FF70ADF804000020ADF833
:1007F0000000ADF80600ADF8020069464FF08040F9
:1008000003F08AF8002211464FF0804003F087FC85
:100810000121880703F028FE2021480603F012FC7E
:1008200007214FF0804003F055FE8021C80503F0FA
:100830005AFE0121880703F0CBFC4FF6FF70ADF89C
:1008400004004820ADF800000020ADF80600ADF827
:1008500002006946FE4803F05FF80121FC4803F0FE
:10086000B7FC0421FA4803F035FE0121F84803F0F3
:1008700007FE2021F64803F024FE8021F44803F00F
:1008800032FE0121F24803F0A3FB0121880703F0A7
:100890009FFB0EBD2DE9F04704464FF07C512046EA
:1008A00004F0AEFB814625462E46EA48A0EB6606DC
:1008B00035462946484604F0A3FB8246294604F003
:1008C0009FFB80464FF07F5104F097FB0746294677
:1008D00004F096FB05462846BDE8F08700204FF05F
:1008E0008041888C0004DA49243109880844704723
:1008F00010B500F06BFF02F039F93220FFF71EFD52
:1009000000F064FF02F032F9FFF764FF4FF07E5011
:10091000D14908600020D1490860D1490860D14917
:100920000860D1490860D1490860D1490860FFF7E3
:10093000D5FFD0490860FFF7D1FFCF49086010BD4F
:1009400070B588B005460DF1160005A9031F04AA6D
:10095000CDE90010891F03A800F0B8FE002415E0BF
:10096000032C07DA03A931F9140004F041FD45F81E
:1009700024000AE003A931F9140004F039FD064609
:10098000BE4904F06FFB45F82400641C062CE7DB2D
:1009900007AA911E06A802F02DF8BDF9180004F070
:1009A00027FDA861BDF91A0004F022FDE861BDF938
:1009B0001C0004F01DFD286208B070BD0FB5ABB07F
:1009C000A5480168006804F01BFB1990A348016862
:1009D000A148006804F014FB1890A14801689E48E3
:1009E000006804F00DFB17909E4801689A48006863
:1009F00004F006FB169099480168006804F000FBBB
:100A00001590974801689548006804F0F9FA149029
:100A1000944801689148006804F0F2FA13909048F5
:100A20000168006804F0ECFA12908E4801688C4866
:100A3000006804F0E5FA11908A480168006804F043
:100A4000DFFA10908E481A903199084604F0D8FACF
:100A50000E903099084604F0D3FA0C902E9908466F
:100A600004F0CEFA0B900C9904F072FA0D900E99E6
:100A700004F06EFA0F90FFF70DFF299029992E9838
:100A800004F0BEFA2E902999309804F0B9FA30900B
:100A90002999319804F0B4FA31903499084604F059
:100AA000AFFA0E903399084604F0AAFA0C903299E6
:100AB000084604F0A5FA0B900C9904F049FA0D9041
:100AC0000E9904F045FA0F90FFF7E4FE299029995A
:100AD000329804F095FA32902999339804F090FAFC
:100AE00033902999349804F08BFA3490179913981D
:100AF00004F02EFA0D904FF08040349904F080FA03
:100B00000C900D9904F07CFA0F901699149804F04B
:100B100071FA0B904FF08040339904F071FA0A900B
:100B20000B9904F06DFA0D904FF07C50129904F07F
:100B300061FA0990109904F05DFA0B904FF0804033
:100B4000329904F05DFA0A900B9904F059FA0C906E
:100B50000D9904F0FDF90E900F9904F0F9F9289021
:100B60001899119804F046FA0D904FF0804034998E
:100B700004F046FA0C900D9904F042FA0F904FF0F1
:100B80007C50159904F036FA0990109904F032FA65
:100B90000B904FF08040339904F032FA0A900B9991
:100BA00004F02EFA0D901699149804F0D1F90B90D8
:100BB0004FF08040329904F023FA0A900B9904F028
:100BC0001FFA0C900D9904F0C3F90E900F9904F0E0
:100BD000BFF927904FF07C50159904F00BFA0B9059
:100BE000129904F007FA0D904FF08040349904F008
:100BF00007FA0C900D9904F003FA0F9018991198C8
:100C000004F0A6F90B904FF08040339904F0F8F906
:100C10000A900B9904F0F4F90D901799139804F0C9
:100C2000E9F90B904FF08040329904F0E9F90A900D
:100C30000B9904F0E5F90C900D9904F089F90E90E8
:100C40000F9904F085F92690279908461AE00000CC
:100C500000040040DF59375F2400002028000020F6
:100C60002C00002030000020180000201C00002074
:100C7000200000203C00002040000020333383414E
:100C80000AD7233B04F0BCF90A902899084604F0DF
:100C9000B7F909900A9904F05BF90B9004F0D0FBC6
:100CA000CDE90C0105F0E0F8CDE90E0104F0DBFB25
:100CB0002590269824901799139804F09BF94FF0EB
:100CC00080410F9004F09CF923901199189804F03A
:100CD0003FF94FF080410F9004F092F9229015995E
:100CE000199804F087F90E90129904F083F90F9087
:100CF000109904F02DF921901799139804F07AF9BE
:100D000008904FF08040249904F07AF907900899F0
:100D100004F076F9099004F093FBCDE90C011098EA
:100D200004F08EFBCDE90401129804F089FB002247
:100D3000FE4BCDE9000104F077FACDE90201DDE9CF
:100D4000042304F06EFACDE908014FF080402599A4
:100D500004F056F9059004F073FBCDE90601DDE9D6
:100D6000082304F064FACDE90A01DDE90C2304F05C
:100D7000B7F9CDE90E0104F076FB2090119918988F
:100D800004F0E6F80D904FF08040249904F038F913
:100D90000C900D9904F034F90F901699149804F002
:100DA00029F90D904FF08040259904F029F90C9015
:100DB0000D9904F025F90E900F9904F0C9F81F90D1
:100DC000129804F03DFBCDE90401159804F038FBBE
:100DD0000022D64BCDE9000104F026FACDE902014C
:100DE000DDE9042304F01DFACDE908014FF080404D
:100DF000249904F005F9059004F022FBCDE90601E1
:100E0000DDE9082304F013FACDE90C0113991798D2
:100E100004F09EF808904FF08040259904F0F0F817
:100E20000790089904F0ECF8099004F009FBCDE96B
:100E30000A01DDE90C2304F053F9CDE90E0104F0B9
:100E400012FB1E901F99349804F0DAF80D901E9949
:100E5000339804F0D5F80C900D9904F0CBF80F906E
:100E60002299319804F0CCF80D902199309804F033
:100E7000C7F80C900D9904F0BDF80E900F9904F08E
:100E800067F81D901E99329804F0BAF80D902099D9
:100E9000349804F0B5F80C900D9904F0ABF80F906D
:100EA00021992E9804F0ACF80D902399319804F014
:100EB000A7F80C900D9904F09DF80E900F9904F08E
:100EC00047F81C902099339804F09AF80D901F99D8
:100ED000329804F095F80C900D9904F08BF80F906F
:100EE0002399309804F08CF80D9022992E9804F0F4
:100EF00087F80C900D9904F07DF80E900F9904F08E
:100F000027F81B9000211D9804F0CAFA69D000212F
:100F10001C9804F0C5FA64D000211B9804F0C0FAB4
:100F20005FD083491D9804F06BF80E901A9904F075
:100F300067F80F907F4801680F9804F009F87D4921
:100F400008607B491C9804F05BF80E901A9904F035
:100F500057F80F90784801680F9803F0F9FF764929
:100F6000086073491B9804F04BF80E901A9904F02E
:100F700047F80F90714801680F9803F0E9FF6F4937
:100F800008604FF07E501D9904F03AF80E902B99AE
:100F900003F0DEFF0F90674801680F9803F0D8FF59
:100FA0002B904FF07E501C9904F02AF80E902C994B
:100FB00003F0CEFF0F90604801680F9803F0C8FF60
:100FC0002C904FF07E501B9904F01AF80E902D993A
:100FD00003F0BEFF0F90594801680F9803F0B8FF67
:100FE0002D9057482D99006804F00AF80D90554847
:100FF0002C99006804F004F80B905348006880F0C6
:10100000004009902B9903F0FBFF0A900B9903F025
:10101000F1FF0C900D9903F0EDFF0E901A9903F07B
:10102000EFFF0F90494801680F9803F091FF47497F
:10103000086043482C99006803F0E2FF0D90414896
:101040002D99006803F0DCFF0B90404801682B9855
:1010500003F0D6FF0A900B9903F07AFF0C900D99DC
:1010600003F0C8FF0E901A9903F0CAFF0F9036489C
:1010700001680F9803F06CFF33490860304801683D
:101080002B9803F0BDFF0D902F482D99006803F0B9
:10109000B7FF0B902D482C99006803F0B1FF0A9020
:1010A0000B9903F0A7FF0C900D9903F051FF0E90E0
:1010B0001A9903F0A5FF0F90224801680F9803F0DA
:1010C00047FF20490860084601682B9803F098FF05
:1010D0000D901D482C99006803F092FF0B901B485F
:1010E0002D99006803F08CFF0A900B9903F030FFF4
:1010F0000C900D9903F07EFF0E901A9903F080FF7B
:101100000F900F4801680F9803F022FF0C49086008
:1011100008460168006803F073FF0E9009480168F3
:10112000006803F06DFF0C90074811E00000E03FFD
:1011300014AE073F180000201C00002020000020F3
:10114000300000202C000020280000202400002077
:101150000168006803F054FF0A90B0480168006815
:1011600003F04EFF09900A9903F0F2FE0B900C99E0
:1011700003F0EEFE0D900E9903F0EAFE0F90FFF7DC
:1011800089FB2990A5482999006803F039FFA349F4
:101190000860A3482999006803F032FFA04908605D
:1011A000A0482999006803F02BFF9E4908609E48DB
:1011B0002999006803F024FF9B4908602FB000BD07
:1011C0002DE9F04186B004469848FFF7B9FB9749EE
:1011D0004869974903F014FF8046964903F042FF9F
:1011E000054692490869924903F00AFF80469149F1
:1011F00003F038FF06468D49C8688D4903F000FFAB
:1012000080468C4903F02EFF07468848006A8749CC
:10121000C969864A9269854B9B68CDE90132CDE95F
:10122000031082484068009080482A46314603688F
:101230003846FFF7C3FB79480068206078480068AB
:10124000606078480068A06077480068E06006B099
:10125000BDE8F0812DE9F04F8FB0044600200A90E0
:10126000099008900BA8FFF7ABFF4FF080400E9954
:1012700003F0C6FE00900E9903F0C2FE83464FF0C5
:1012800040400D9903F0BCFE00900D9903F0B8FEAC
:101290005946019003F0AEFE82464FF07E5103F0B6
:1012A00057FE814604F0CCF8074688464FF0804050
:1012B0000B9903F0A5FE01900E9903F0A1FE824662
:1012C0004FF080400C9903F09BFE01900D9903F0C4
:1012D00097FE8346514603F03BFE814604F0B0F88A
:1012E0003A464346CDE9020104F0FEFC81F000419C
:1012F00005460022504B03F09AFF4FF0C0424F4B7F
:10130000CDE9040104F005F8CDE9060104F0ABF8DD
:1013100020604FF080400B9903F072FE03900D990E
:1013200003F06EFE82464FF040400C9903F068FED9
:1013300003900E9903F064FE8346514603F008FEC5
:10134000814604F07DF8CDE9040104F085FA81F0CE
:10135000004107460022384B03F069FF05464FF075
:10136000C042364B03F0D5FFCDE9060104F07BF80F
:1013700060604FF080400D9903F042FE83460D9966
:1013800003F03EFE81464FF040400C9903F038FEDA
:1013900083460C9903F034FE8246494603F02AFE48
:1013A00006464FF07E5103F0D3FD054604F048F8A1
:1013B000CDE902014FF080400B9903F021FE8246F7
:1013C0000C9903F01DFE06464FF080400D9903F086
:1013D00017FE82460E9903F013FE8146314603F054
:1013E000B7FD054604F02CF8CDE90001DDE9022344
:1013F00004F07AFC074600220F4B03F018FF4FF071
:10140000C0420E4BCDE9040103F083FFCDE9060194
:1014100004F029F8A0600FB0BDE8F08F2400002090
:10142000280000202C00002030000020B800002000
:10143000DB0F49400000344300806640FB21094037
:10144000FC48006870472DE9F04304460D46DDE98D
:1014500007670021012041E0DFF8DCC33CF8108081
:10146000A0F1010CDFF8D09329F81C8009F1160CCB
:101470003CF81090A0F1010CDFF8BC8308F11608CD
:1014800028F81C9008F1160C3CF81090A0F1010C03
:1014900008F1160828F81C9008F1160C3CF810907A
:1014A000A0F1010C08F1160828F81C9008F1160CA0
:1014B0003CF81090A0F1010C08F1160828F81C90D7
:1014C00008F1160C3CF81090A0F1010C08F1160878
:1014D00028F81C9000F1010C0CF0FF000A28BBDB7F
:1014E000DFF854C3ACF81240ACF82850ACF83E20FA
:1014F000ACF85430ACF86A60ACF880700021002081
:1015000008E0DFF834C33CF910C0614400F1010C7D
:101510000CF0FF000A28F4DB4FF00A0C91FBFCFCF6
:101520000FFA8CFCDFF81083A8F814C0002100200B
:101530000AE0DFF804C30CF1160C3CF910C061445A
:1015400000F1010C0CF0FF000A28F2DB4FF00A0C4E
:1015500091FBFCFC0FFA8CF8DFF8DCC2ACF82A80B7
:10156000002100200AE0DFF8D0C20CF12C0C3CF97D
:1015700010C0614400F1010C0CF0FF000A28F2DBFE
:101580004FF00A0C91FBFCFC0FFA8CF8DFF8A8C2B4
:10159000ACF84080002100200AE0DFF89CC20CF18A
:1015A000420C3CF910C0614400F1010C0CF0FF004A
:1015B0000A28F2DB4FF00A0C91FBFCFC0FFA8CF8C6
:1015C000DFF874C2ACF85680002100200AE0DFF892
:1015D00068C20CF1580C3CF910C0614400F1010CD8
:1015E0000CF0FF000A28F2DB4FF00A0C91FBFCFC28
:1015F0000FFA8CF8DFF840C2ACF86C8000210020B4
:101600000AE0DFF834C20CF16E0C3CF910C0614402
:1016100000F1010C0CF0FF000A28F2DB4FF00A0C7D
:1016200091FBFCFC0FFA8CF8DFF80CC2ACF882805E
:10163000BDE8F08338B50446032302226B21D02095
:101640000094FFF76CF838BD38B504460223042235
:101650001B21D0200094FFF762F838BD38B504464E
:10166000022304221C21D0200094FFF758F838BD33
:1016700010B50446234606226B21D020FFF784F8DC
:1016800010BD10B56D4B01227521D020FEF7DDFF96
:101690006A48007810BD10B5FFF7F3FF682801D144
:1016A000012010BD0020FCE710B5044623460522AA
:1016B0006A21D020FFF768F810BD10B50446234614
:1016C00001223721D020FFF75FF810BD2DE9FC473C
:1016D00004460D4616461F46DDE90A89574B0E2281
:1016E0003B21D020FEF7B1FF544840785349097898
:1016F00040EA012000B2524908805048C0784F4962
:10170000897840EA012000B24E4908804B48407970
:101710004A49097940EA012000B24B49088047480C
:10172000407A4649097A40EA012000B247490880D8
:101730004248C07A4149897A40EA012000B24449CE
:1017400008803E48407B3D49097B40EA012000B2C9
:10175000404908800846B0F900003D49B1F9001041
:10176000CDE900103948B0F900303748B0F9002011
:101770003448B0F900103248B0F90000FFF763FEBA
:101780002D48808A20802C48408D28802A48B0F837
:10179000400030802848B0F856002F490988401A88
:1017A00000B238802448B0F86C002C490988401AEF
:1017B00000B2A8F800002048B0F882002849098843
:1017C000401A00B2A9F80000BDE8FC8710B586B049
:1017D0000120FFF72FFF0320FFF736FF0020FFF760
:1017E0003DFF0020FFF744FF0020FFF75DFF0120D1
:1017F000FFF763FF002307223721D020FEF7C4FF45
:10180000002306223721D020FEF7BEFF0123052248
:101810003721D020FEF7B8FF012304223721D02042
:10182000FEF7B2FF012300223821D020FEF7ACFFE3
:10183000002427E04C000020EA000020DC0000200B
:1018400050000020520000205400002056000020CC
:10185000580000205A0000204400002046000020CC
:10186000480000203220FEF785FD0DF1160005A985
:10187000031F04AACDE90010891F03A8FFF726FF64
:10188000601CC4B20A2CEDDB5D4A5E495E4800F084
:10189000CBFF06B010BD10B540215C4801F0DBFC69
:1018A000012800D110BD0020FCE7F0B5DDE90545B9
:1018B000574EB68A0680564E768D0E80544EB6F838
:1018C00040601680524EB6F856604F4F3F88F61B68
:1018D00036B21E804E4EB6F86C604A4F3F88F61BFB
:1018E00036B226804A4EB6F88260454F3F88F61BD6
:1018F00036B22E80F0BD2DE9F04786B04FF00008DB
:10190000C146C24600250026002700203E49088027
:101910003C4908803A49088000240FE06420FEF723
:1019200029FD0DF1160005A9031F04AACDE9001039
:10193000891F03A8FFF7CAFE601CC4B2322CEDDB7E
:10194000002421E0C820FEF715FD0DF1160005A9C1
:10195000031F04AACDE90010891F03A8FFF7B6FEF4
:10196000BDF90C000544BDF90E000644BDF9100098
:101970000744BDF912008044BDF914008144BDF94B
:1019800016008244601CC4B2642CDBDB642098FB2C
:10199000F0F000B21C490880642099FBF0F000B21E
:1019A0001849088064209AFBF0F000B214490880BE
:1019B000642095FBF0F596FBF0F697FBF0F7A9197C
:1019C000C81903F015FD134908600D48B0F900204F
:1019D0000C48B0F900100C48B0F9000000F038FFD6
:1019E00000200949088007490880054908800A46FF
:1019F0000449054800F018FF06B0BDE8F087000074
:101A0000480000204600002044000020000801405B
:101A1000EA0000204C00002008B526208DF80000C8
:101A200001208DF8010008208DF8020001208DF8BA
:101A30000300684601F0B3FA08BD10B586B004464D
:101A40000121FE4801F03DFE0420ADF814001820ED
:101A50008DF8170003208DF8160005A9F84801F04D
:101A600067FB0820ADF8140004208DF8170005A9C5
:101A7000F34801F05DFB01940020ADF80800ADF8DB
:101A80000A00ADF80C00ADF810000C20ADF80E0007
:101A900001A9EC4802F0BDFD002240F22771E9489F
:101AA00002F04FFE4021E74802F027FF012240F2FA
:101AB0002551E44802F045FE0121E24802F035FEDE
:101AC000FFF7AAFF06B010BD10B50446DE48017846
:101AD0000078401CDC4A1070DC484454012240F27B
:101AE0002771D84802F02DFE10BD10B500BFD548B3
:101AF000008800F020000028F9D0D54802F086FECA
:101B0000C0B210BD10B504460FE020780D2802D1F8
:101B1000FFF7DAFF08E020780A2802D1FFF7D4FFA8
:101B200002E02078FFF7D0FF641C20780028ECD179
:101B300010BD10B504460A20B0EB241F05DD30218E
:101B400001EB2410FFF7C0FF06E00A21C1EB2411CE
:101B50004131C8B2FFF7B8FF04F00F000A2806DAD7
:101B600004F00F0101F13000FFF7AEFF05E004F0D3
:101B70000F013731C8B2FFF7A7FF2020FFF7A4FFFE
:101B800010BD10B504462012FFF7D3FFE0B2FFF7F7
:101B9000D0FF10BD10B50446200CFFF7F2FFA0B235
:101BA000FFF7EFFF10BD2DE9F0410546A94C0027D6
:101BB00013E0B5FBF4F0C6B2002E02DC0FB9012C25
:101BC00005D106F13001C8B2FFF77EFF012706FB01
:101BD00014550A20B4FBF0F400BF002CE9D1BDE895
:101BE000F08110B50446002C04DA604204B22D20C6
:101BF000FFF76AFF2046FFF7D6FF10BD70B5044619
:101C0000002C04DA604204B22D20FFF75DFF0A20A9
:101C100094FBF0F52846FFF7C6FF2E20FFF754FF90
:101C20000A2094FBF0F100FB11452846FFF7BBFFAB
:101C300070BD2DE9F05F06460F4690469946DDE9F6
:101C40000AABB324A520FFF73FFF5A20FFF73CFF64
:101C50001220FFF739FFA120FFF736FF002E02DA2E
:101C6000C6F5004006B2C6F307252846FFF72CFF4D
:101C70002C44F5B22846FFF727FF2C44002F02DA48
:101C8000C7F5004007B2C7F307252846FFF71CFF3A
:101C90002C44FDB22846FFF717FF2C44B8F1000F83
:101CA00003DAC8F500400FFA80F8C8F30725284684
:101CB000FFF70AFF2C4408F0FF052846FFF704FF52
:101CC0002C44B9F1000F03DAC9F500400FFA80F98E
:101CD000C9F307252846FFF7F7FE2C4409F0FF0556
:101CE0002846FFF7F1FE2C44BAF1000F03DACAF5DB
:101CF00000400FFA80FACAF307252846FFF7E4FEF2
:101D00002C440AF0FF052846FFF7DEFE2C44BBF109
:101D1000000F03DACBF500400FFA80FBCBF3072569
:101D20002846FFF7D1FE2C440BF0FF052846FFF7AD
:101D3000CBFE2C440C98C0F307252846FFF7C4FEC1
:101D40002C440C98C5B22846FFF7BEFE2C44E0B2E6
:101D5000FFF7BAFEAA20FFF7B7FEBDE8F09F2DE916
:101D6000F05F06460F4690469946DDE90AABB82477
:101D7000A520FFF7A9FE5A20FFF7A6FE1620FFF7C1
:101D8000A3FEA220FFF7A0FE002E02DAC6F5004057
:101D900006B2C6F307252846FFF796FE2C44F5B297
:101DA0002846FFF791FE2C44002F02DAC7F50040C9
:101DB00007B2C7F307252846FFF786FE2C44FDB27D
:101DC0002846FFF781FE2C44B8F1000F03DAC8F56E
:101DD00000400FFA80F8C8F307252846FFF774FE85
:101DE0002C4408F0FF052846FFF76EFE2C44B9F19D
:101DF000000F03DAC9F500400FFA80F9C9F307258F
:101E00002846FFF761FE2C4409F0FF052846FFF73E
:101E10005BFE2C44BAF1000F03DACAF500400FFA5A
:101E200080FACAF307252846FFF74EFE2C440AF035
:101E3000FF052846FFF748FE2C440DE00400020091
:101E400000080140004400405D0000206E010020B9
:101E500000380140A0860100BBF1000F03DACBF58A
:101E600000400FFA80FBCBF307252846FFF72CFE36
:101E70002C440BF0FF052846FFF726FE2C440C9857
:101E8000002804DA0C98C0F5004000B20C900C98C1
:101E9000C0F307252846FFF717FE2C440C98C5B25F
:101EA0002846FFF711FE2C440D98002804DA0D98FF
:101EB000C0F5004000B20D900D98C0F307252846EC
:101EC000FFF702FE2C440D98C5B22846FFF7FCFD33
:101ED0002C440E98002804DA0E98C0F5004000B299
:101EE0000E900E98C0F307252846FFF7EDFD2C4411
:101EF0000E98C5B22846FFF7E7FD2C44E0B2FFF785
:101F0000E3FDAA20FFF7E0FDBDE8F09F2DE9F05FBB
:101F100006460F4690469946DDE90AABB624A52051
:101F2000FFF7D2FD5A20FFF7CFFD1220FFF7CCFDBF
:101F3000A420FFF7C9FD002E02DAC6F5004006B264
:101F4000C6F307252846FFF7BFFD2C44F5B2284607
:101F5000FFF7BAFD2C44002F02DAC7F5004007B2A4
:101F6000C7F307252846FFF7AFFD2C44FDB22846EE
:101F7000FFF7AAFD2C44B8F1000F03DAC8F50040C2
:101F80000FFA80F8C8F307252846FFF79DFD2C447B
:101F900008F0FF052846FFF797FD2C44B9F1000F24
:101FA00003DAC9F500400FFA80F9C9F3072528467E
:101FB000FFF78AFD2C4409F0FF052846FFF784FD52
:101FC0002C44BAF1000F03DACAF500400FFA80FA88
:101FD000CAF307252846FFF777FD2C440AF0FF05D2
:101FE0002846FFF771FD2C44BBF1000F03DACBF557
:101FF00000400FFA80FBCBF307252846FFF764FD6E
:102000002C440BF0FF052846FFF75EFD2C440C988E
:10201000C0F307252846FFF757FD2C440C98C5B29E
:102020002846FFF751FD2C44E0B2FFF74DFDAA20F2
:10203000FFF74AFDBDE8F09F10B540F22771104848
:1020400002F064FCD8B10F4802780078401C0D4BB8
:1020500018700D48815C0A4802F0D4FB40F22771E9
:10206000074802F07DFC0748007808490978884253
:1020700005D1002240F22771014802F062FB10BD39
:10208000004400405C0000206E0100205D00002044
:1020900008B525208DF8000001208DF801000720EB
:1020A0008DF8020001208DF80300684600F077FFEC
:1020B00008BD10B586B00446012144F2040001F0C9
:1020C000F3FA4FF40070ADF8140018208DF81700E3
:1020D00003208DF8160005A9FE4801F029F84FF4F9
:1020E0008060ADF8140004208DF8170005A9F948A8
:1020F00001F01EF801940020ADF80800ADF80A00C8
:10210000ADF80C00ADF810000C20ADF80E0001A9E0
:10211000F14802F07EFA002240F22771EE4802F008
:1021200010FB4021EC4802F0E8FB012240F225516F
:10213000E94802F006FB0121E74802F0F6FAFFF752
:10214000A7FF06B010BD10B50446E448017800783A
:10215000401CE24A1070E2484454012240F22771C8
:10216000DD4802F0EEFA10BD10B500BFDA48008875
:1021700000F020000028F9D0D74802F047FBC0B299
:1021800010BD10B504460FE020780D2802D1FFF7EE
:10219000DAFF08E020780A2802D1FFF7D4FF02E036
:1021A0002078FFF7D0FF641C20780028ECD110BD08
:1021B00010B504460A20B0EB241F05DD302101EBE9
:1021C0002410FFF7C0FF06E00A21C1EB24114131C2
:1021D000C8B2FFF7B8FF04F00F000A2806DA04F0CF
:1021E0000F0101F13000FFF7AEFF05E004F00F0131
:1021F0003731C8B2FFF7A7FF2020FFF7A4FF10BDBB
:1022000010B504462012FFF7D3FFE0B2FFF7D0FF6E
:1022100010BD10B50446200CFFF7F2FFA0B2FFF787
:10222000EFFF10BD2DE9F0410546AE4C002713E04D
:10223000B5FBF4F0C6B2002E02DC0FB9012C05D1BB
:1022400006F13001C8B2FFF77EFF012706FB1455E7
:102250000A20B4FBF0F400BF002CE9D1BDE8F08106
:1022600010B50446002C04DA604204B22D20FFF7BA
:102270006AFF2046FFF7D6FF10BD70B50446002C5C
:1022800004DA604204B22D20FFF75DFF0A2094FBC0
:10229000F0F52846FFF7C6FF2E20FFF754FF0A206F
:1022A00094FBF0F100FB11452846FFF7BBFF70BD22
:1022B0002DE9F05F06460F4690469946DDE90AABE8
:1022C000B324A520FFF73FFF5A20FFF73CFF122061
:1022D000FFF739FFA120FFF736FF002E02DAC6F51F
:1022E000004006B2C6F307252846FFF72CFF2C4412
:1022F000F5B22846FFF727FF2C44002F02DAC7F576
:10230000004007B2C7F307252846FFF71CFF2C44FF
:10231000FDB22846FFF717FF2C44B8F1000F03DA8F
:10232000C8F500400FFA80F8C8F307252846FFF7E4
:102330000AFF2C4408F0FF052846FFF704FF2C4451
:10234000B9F1000F03DAC9F500400FFA80F9C9F3BB
:1023500007252846FFF7F7FE2C4409F0FF0528461D
:10236000FFF7F1FE2C44BAF1000F03DACAF5004082
:102370000FFA80FACAF307252846FFF7E4FE2C443B
:102380000AF0FF052846FFF7DEFE2C44BBF1000FE4
:1023900003DACBF500400FFA80FBCBF30725284684
:1023A000FFF7D1FE2C440BF0FF052846FFF7CBFECC
:1023B0002C440C98C0F307252846FFF7C4FE2C4494
:1023C0000C98C5B22846FFF7BEFE2C44E0B2FFF7DA
:1023D000BAFEAA20FFF7B7FEBDE8F09F2DE9F05F37
:1023E00006460F4690469946DDE90AABB824A5207B
:1023F000FFF7A9FE5A20FFF7A6FE1620FFF7A3FE5F
:10240000A220FFF7A0FE002E02DAC6F5004006B2B9
:10241000C6F307252846FFF796FE2C44F5B228465A
:10242000FFF791FE2C44002F02DAC7F5004007B2F7
:10243000C7F307252846FFF786FE2C44FDB2284641
:10244000FFF781FE2C44B8F1000F03DAC8F5004015
:102450000FFA80F8C8F307252846FFF774FE2C44CE
:1024600008F0FF052846FFF76EFE2C44B9F1000F77
:1024700003DAC9F500400FFA80F9C9F307252846A9
:10248000FFF761FE2C4409F0FF052846FFF75BFECD
:102490002C44BAF1000F03DACAF500400FFA80FAB3
:1024A000CAF307252846FFF74EFE2C440AF0FF0525
:1024B0002846FFF748FE2C44BBF1000F03DACBF5AA
:1024C00000400FFA80FBCBF307252846FFF73BFEC1
:1024D0002C4409E000080140003801405F00002062
:1024E00070020020A08601000BF0FF052846FFF7D0
:1024F0002AFE2C440C98002804DA0C98C0F5004001
:1025000000B20C900C98C0F307252846FFF71BFE7D
:102510002C440C98C5B22846FFF715FE2C440D98A4
:10252000002804DA0D98C0F5004000B20D900D9817
:10253000C0F307252846FFF706FE2C440D98C5B2C8
:102540002846FFF700FE2C440E98002804DA0E9867
:10255000C0F5004000B20E900E98C0F30725284643
:10256000FFF7F1FD2C440E98C5B22846FFF7EBFDAE
:102570002C44E0B2FFF7E7FDAA20FFF7E4FDBDE839
:10258000F09F2DE9F05F06460F4690469946DDE93B
:102590000AABB624A520FFF7D6FD5A20FFF7D3FDDE
:1025A0001220FFF7D0FDA420FFF7CDFD002E02DAA8
:1025B000C6F5004006B2C6F307252846FFF7C3FD5F
:1025C0002C44F5B22846FFF7BEFD2C44002F02DA5A
:1025D000C7F5004007B2C7F307252846FFF7B3FD4C
:1025E0002C44FDB22846FFF7AEFD2C44B8F1000F95
:1025F00003DAC8F500400FFA80F8C8F3072528462B
:10260000FFF7A1FD2C4408F0FF052846FFF79BFDCE
:102610002C44B9F1000F03DAC9F500400FFA80F934
:10262000C9F307252846FFF78EFD2C4409F0FF0566
:102630002846FFF788FD2C44BAF1000F03DACAF5EB
:1026400000400FFA80FACAF307252846FFF77BFD02
:102650002C440AF0FF052846FFF775FD2C44BBF11A
:10266000000F03DACBF500400FFA80FBCBF3072510
:102670002846FFF768FD2C440BF0FF052846FFF7BE
:1026800062FD2C440C98C0F307252846FFF75BFD3C
:102690002C440C98C5B22846FFF755FD2C44E0B2F7
:1026A000FFF751FDAA20FFF74EFDBDE8F09F10B5E2
:1026B00040F22771554802F029F9D8B15448027800
:1026C0000078401C524B18705248815C4F4802F011
:1026D00099F840F227714D4802F042F94C480078D1
:1026E0004D490978884205D1002240F227714748B8
:1026F00002F027F840F22551444802F007F900287B
:1027000059D0424802F082F8C4B2A52C0DD14348FA
:10271000007840F080004149087041490878411C28
:102720003F4A11703F490C5437E05A2C1CD13B48AA
:10273000007800F0800048B100203949087037481F
:10274000007820F040003549087006E034490878E8
:10275000411C334A117033490C543048007820F042
:1027600080002E49087018E02D490878411C2C4A39
:1027700011702C490C542948007820F0800027491A
:1027800008702848007811460978884205D1234806
:10279000007840F040002149087021480078642802
:1027A00004D11F480078401E1D49087040F2255191
:1027B000164802F0D5F810BD10B50022002104E043
:1027C0001848405C0244481CC1B216480078801E7C
:1027D0008842F5DCD3B213480078801E114C205C8F
:1027E000834201D1012010BD0020FCE70B48007896
:1027F00000F0400040B10948007820F0400007494F
:102800000870084840787047FF20FCE70038014016
:102810005E000020700200205F00002061000020A8
:1028200060000020720300202DE9F04105460E46AD
:102830001746414C02F0CDF820882880A41C20883F
:102840003080A41C2088388002F0CFF8BDE8F081E9
:102850002DE9F04105460E461746374C02F0B9F80F
:10286000204602F0FBF8A9B2204602F0FAF9A41CB7
:10287000B1B2204602F0F5F9A41CB9B2204602F02C
:10288000F0F9A41C02F0B1F8BDE8F0812DE9F047A1
:1028900005460E4617469846DDE9089A274C02F091
:1028A00098F820882880A41C20883080A41C2088C8
:1028B0003880A41C2088A8F80000A41C2088A9F84F
:1028C0000000A41C2088AAF8000002F08EF8BDE8E1
:1028D000F0872DE9F04705460E4617469846DDE994
:1028E000089A164C02F075F8204602F0B7F8A9B223
:1028F000204602F0B6F9A41CB1B2204602F0B1F9AC
:10290000A41CB9B2204602F0ACF9A41C1FFA88F14D
:10291000204602F0A6F9A41C1FFA89F1204602F015
:10292000A0F9A41C1FFA8AF1204602F09AF902F0DD
:102930005CF8BDE8F087000000F0000800F4000833
:1029400002468A4201DA104670470846FCE7024612
:102950008A4201DD104670470846FCE7F0B50346A1
:102960000C46002501201AE0A64E36F81070461ECF
:10297000DFF890C22CF816700CF1160636F810C06D
:10298000461EA04F163727F816C007F1160636F870
:1029900010C0461E163727F816C0461CF0B20A288B
:1029A000E2DB984E73823485F28700211FE0002518
:1029B00000200BE001EB410606EBC106914F07EB4F
:1029C000460636F910603544461CF0B20A28F1DBA1
:1029D0000A2695FBF6F636B201EB410707EBC10775
:1029E000DFF820C20CEB4707BE824E1CF1B2032970
:1029F000DDDBF0BD2DE9FC4705460E4614466B466F
:102A0000072202211820FDF720FE9DF8000020B1CA
:102A100001220A211820FDF778FE9DF801009DF89B
:102A2000021040EA01200FFA80F89DF803009DF89B
:102A3000041040EA012007B29DF805009DF8061039
:102A400040EA01200FFA80F94A4641463846FFF72E
:102A500085FF6C48808A28806A48408D30806948AC
:102A6000B0F84000208068480078A8B3B5F90000AD
:102A70006649B1F90010FFF763FF64490880B5F9B2
:102A800000006349B1F90010FFF761FF6049088059
:102A9000B6F900005F49B1F90010FFF751FF5D4939
:102AA0000880B6F900005C49B1F90010FFF74FFF4C
:102AB00059490880B4F900005849B1F90010FFF7EE
:102AC0003FFF56490880B4F900005549B1F900109C
:102AD000FFF73DFF524908804D49B1F900104B4ABC
:102AE000B2F90020881800EBD0712A88A2EB6101AE
:102AF00009B229804849B1F90010464AB2F90020CC
:102B0000881800EBD0713288A2EB610109B23180E4
:102B10004349B1F90010414AB2F90020881800EB8E
:102B2000D0712288A2EB610109B221802088404245
:102B300000B22080BDE8FC871CB5002408E001AA93
:102B4000911E6846FFF756FFC820FDF713FC641C72
:102B5000322CF4DB1CBD2B4B9B8A0380294B5B8DF5
:102B60000B80284BB3F84030138070471CB501220E
:102B70000A211820FDF7C9FD0A20FDF7DFFBFFF74A
:102B8000DBFF27482449224B244ACDE90010214984
:102B90001E48FFF77BFE1CBD01201B49087000206A
:102BA0001A4908801A4908801A4908801A49088079
:102BB0001A4908801A49088070471CB5002012493C
:102BC00008701748B0F900001349B1F90010CDE9B9
:102BD00000100F48B0F900301048B0F900200D483F
:102BE000B0F900100948B0F90000FFF772FE0C4878
:102BF0000949074B094ACDE9001006490348FFF788
:102C000045FE1CBDD6030020700000207800002087
:102C1000720000207A000020740000207C00002058
:102C2000760000201FB50121042000F04AFD472056
:102C3000ADF8080041F28730ADF804000020ADF88F
:102C40000A00ADF8060001A9B14800F065FE0122B6
:102C50001146AF4801F0D7F91E208DF80000002082
:102C60008DF8010003208DF8020001208DF803008B
:102C7000684600F094F90121A54801F0A9F91FBDAB
:102C800008B54FF48070ADF8000010208DF80300F7
:102C900003208DF8020069469E4800F049FA4FF47F
:102CA00080719C4800F0F1FA08BD10B54FF48071B6
:102CB000984800F0ECFA10BD10B54FF480719548BB
:102CC00000F0E3FA10BD94490860704786B0FDF744
:102CD00086FA0121084600F0E7FC01218F4800F048
:102CE000F8FA4820FDF70EFB4FF4E130FFF7E1F969
:102CF000FFF798FFFDF75EFB4FF49670FDF71EFBA4
:102D0000FDF7F6FDFFF7BCFFFDF7E8FD844908601D
:102D1000E1E08448007878B1FFF7C7FF8248FEF70A
:102D200099FA82480088401C00B280490880FFF769
:102D3000C3FF00207B490870FDF7D0FD7849096882
:102D4000401A48F2352188427ED979480078012816
:102D500002D002287CD13EE07349886802F070FB03
:102D600007460022734B02F062FA054602F049FB67
:102D70000FFA80F96C49486802F062FB07460022AE
:102D80006C4B02F054FA054602F03BFB0FFA80FA56
:102D90006549086802F054FB07460022654B02F0C3
:102DA00046FA054602F02DFB0FFA80FB5F480088CB
:102DB000000100B2002100910B464A46CDE9011006
:102DC00051465846FFF774FA0020584908800220FF
:102DD0005749087058E058485849594B594ACDE965
:102DE000001059495948FEF760FD594A59495A4857
:102DF000FFF7B1FE5648B0F900005649B1F900108E
:102E0000554AB2F900204C4BB3F90030CDE90132FC
:102E1000CDE903104948B0F9000000904848B0F9E6
:102E200000304848B0F900204748B0F90010474842
:102E3000B0F90000FFF7D2FA01203D490870474879
:102E4000007820B1032001E023E001E008701BE0DE
:102E500000204349B1F90010424AB2F90020CDE9FF
:102E6000002102904048B0F900304048B0F90020FD
:102E70003F48B0F900103F48B0F90000FFF781FB70
:102E800001202B49087000BF00BFFDF727FD244932
:102E90000860FFF7ABFC0446FF281CD0E02C06D0EE
:102EA000E12C0AD0E22C0ED0E32C13D10CE0FEF77B
:102EB00022FD6420FFF707FF0CE0FFF77EFE642091
:102EC000FFF701FF06E005E0FFF766FE6420FFF76D
:102ED000FAFE00BF00BF1CE710B501210C4801F04D
:102EE00040FBA0B101200F4908700B480068002882
:102EF00007DD09480068401E07490860FFF7D5FE56
:102F000001E0FFF7D9FE0121014801F03BFB10BDB4
:102F10000008004000080140980000200002300036
:102F2000940000209F000020180400209C00002036
:102F30009E000020000024408A000020880000201D
:102F400086000020840000208200002080000020F5
:102F5000900000208E0000208C00002070000020D7
:102F60007600002074000020720000207C00002009
:102F70007A00002078000020704700BFFEE700BF05
:102F8000FEE700BFFEE700BFFEE7704770477047EF
:102F90007047000031490143314A1160704770B5F4
:102FA000002100230F22C47804B32D4C246804F4BC
:102FB000E064C4F5E064210AC1F10403CA40447826
:102FC00004FA03F18478144021430901254C067862
:102FD000A155047804F01F050124AC4005786D115B
:102FE000AD0005F1E025C5F8004109E0047804F0E2
:102FF0001F050124AC401C4D0678761145F826408B
:1030000070BD1A4A0A400243154B1B1F1A607047D5
:1030100039B1134A121D12680243114B1B1D1A606D
:1030200006E00F4A121D126882430D4B1B1D1A60E9
:103030007047042808D14FF0E021096941F00401EC
:103040004FF0E022116107E04FF0E021096921F023
:1030500004014FF0E0221161704700000000FA0502
:103060000CED00E000E400E080E100E080FFFF1FE5
:1030700010B50446CC48844208D10121042000F058
:103080002DFB0021042000F029FB46E0C7488442C4
:1030900008D10121082000F021FB0021082000F0C8
:1030A0001DFB3AE0C248844208D10121102000F003
:1030B00015FB0021102000F011FB2EE0BD488442DA
:1030C00008D10121202000F009FB0021202000F080
:1030D00005FB22E0B848844208D10121402000F0DD
:1030E000FDFA0021402000F0F9FA16E0B3488442CE
:1030F00008D10121802000F0F1FA0021802000F0A9
:10310000EDFA0AE0AE48844207D10121801500F0B3
:10311000E5FA0021A01500F0E1FA10BD10B501217B
:10312000084600F0DBFA0021012000F0D7FA10BDBC
:103130002DE9F0410246002500260020002300244E
:10314000002791F803C00CF00F0591F803C00CF0B4
:10315000100CBCF1000F03D091F802C04CEA050539
:1031600091F800C0BCF1000F31D0146800202BE0B2
:103170004FF0010C0CFA00F3B1F800C00CEA0306A2
:103180009E4220D183004FF00F0C0CFA03F7BC4392
:1031900005FA03FC4CEA040491F803C0BCF1280FC3
:1031A00006D14FF0010C0CFA00FCC2F814C00AE082
:1031B00091F803C0BCF1480F05D14FF0010C0CFA97
:1031C00000FCC2F810C0401C0828D1D31460B1F82C
:1031D00000C0BCF1FF0F34DD546800202EE000F188
:1031E000080C4FF0010808FA0CF3B1F800C00CEA23
:1031F00003069E4221D183004FF00F0C0CFA03F717
:10320000BC4305FA03FC4CEA040491F803C0BCF18A
:10321000280F05D100F1080C08FA0CF8C2F8148048
:1032200091F803C0BCF1480F07D100F1080C4FF032
:10323000010808FA0CF8C2F81080401C0828CED308
:103240005460BDE8F0814FF6FF710180022181706A
:103250000421C17070470246002093680B400BB1F7
:10326000012000E0002070470146886880B2704766
:1032700002460020D3680B400BB1012000E0002083
:1032800070470146C86880B270470161704741616C
:1032900070470AB1016100E041617047C160704749
:1032A0004FF480320A43826181618261826982695E
:1032B000704702460020434B18684FF68073184051
:1032C00040EA021008433F4B186070473E49C8610E
:1032D0007047F0B50A46002300240021002500F0C5
:1032E0000046B6F1004F02D1364EF16901E0354E8D
:1032F0007168C0F3034583B200F44016B6F5401F71
:1033000008D121F070612F4E766826F070662D4F3F
:103310007E6012E000F48016B6F5801F06D1032609
:1033200006FA05F4A14341F0706106E0460D36014E
:1033300003FA06F6B14341F0706122B1460D360141
:1033400003FA06F6314300F00046B6F1004F02D111
:103350001C4EF16101E01B4E7160F0BD30B50022E2
:103360008B071C0F0F2303FA04F2164B08338C1043
:1033700053F824309343134C08348D1044F825300F
:1033800023468C1053F824308C07240F00FA04F4E1
:1033900023430C4C08348D1044F8253030BD0A49C5
:1033A000DC3108607047000000080140000C01405B
:1033B000001001400014014000180140001C0140B1
:1033C000002001400000014000002042DF4800686A
:1033D00040F00100DD49086008464068DC490840CB
:1033E000DA49486008460068DA490840D749086069
:1033F0000846006820F4802008600846406820F4F1
:10340000FE0048604FF41F0088607047CF4909688C
:1034100021F48031CD4A11601146096821F48021E0
:103420001160B0F5803F03D0B0F5802F0ED106E0DB
:10343000C649096841F48031C44A116007E0C349B4
:10344000096841F4A021C14A116000E000BF00BF3B
:10345000704710B501460022002300204A11012ABE
:1034600002D1BA4C236806E0022A02D1B74C236A83
:1034700001E0B64C636A01F01F02012494401C4035
:103480000CB1012000E0002010BD38B500200090F4
:103490000024002500BF3120FFF7DBFF0546009820
:1034A000401C00900098B0F5A06F01D0002DF2D024
:1034B0003120FFF7CEFF08B1012400E000242046B0
:1034C00038BD01460020A14A106820F0F80040EA0B
:1034D000C10010607047A049086070470246002094
:1034E0009A4B586820F47C1042EA01031843974B2A
:1034F0005860704798490866704701460020934A13
:10350000506820F003000843506070478F484068BF
:1035100000F00C007047014600208C4A506820F0F3
:10352000F00008435060704701460020874A506809
:1035300020F4E06008435060704701460020834A51
:10354000506820F4605040EAC1005060704729B1D3
:103550007E4A527A02437D4B5A7204E07B4A527A89
:1035600082437A4B5A7270477B49D8310860704762
:1035700001460020754A506820F4404008435060DE
:1035800070470021714A20321170704A82F8201071
:10359000012802D004280AD104E001216B4A20321C
:1035A000117005E00521694A2032117000E000BF6A
:1035B00000BF70476949086070476449096A014360
:1035C000624A11627047654944390860704730B5F6
:1035D00000210022002400235C4D6D6805F00C01E1
:1035E00021B1042905D0082923D105E05C4D0560EF
:1035F00022E05B4D05601FE0544D6D6805F47012CC
:10360000524D6D6805F48034022505EB92421CB9D9
:10361000544D554305600BE04C4D6D6805F4003585
:103620001DB1504D5543056002E04D4D55430560B9
:1036300002E04B4D056000BF00BF444D6D6805F0D2
:10364000F0010909484D6B5C0568DD4045603F4D60
:103650006D6805F4E061090A434D6B5C4568DD4027
:1036600085603A4D6D6805F46051C90A3E4D6B5C4A
:103670004568DD40C560354D6D6805F44041890BF6
:103680003A4D6B5CC568B5FBF3F5056130BD29B1FA
:103690002E4A526902432D4B5A6104E02B4A52696B
:1036A00082432A4B5A61704729B1284A92690243E2
:1036B000264B9A6104E0254A92698243234B9A6122
:1036C000704729B1214AD2690243204BDA6104E0F4
:1036D0001E4AD26982431D4BDA61704729B11B4AE9
:1036E000D2680243194BDA6004E0184AD268824378
:1036F000164BDA60704729B1144A12690243134B22
:103700001A6104E0114A12698243104B1A61704732
:1037100012494039086070470F49C86470470B4927
:10372000C87170470948406A40F080700749486294
:10373000704701460020054A92680A400AB10120FC
:1037400000E0002070470149887270470010024075
:103750000000FFF8FFFFF6FE0000424280044242F4
:1037600000127A0000093D00A0000020B0000020F7
:1037700010B50446FE48844208D10121C014FFF769
:10378000ADFF0021E014FFF7A9FFC4E0B4F1804FC2
:1037900008D101210846FFF7AEFF00210120FFF705
:1037A000AAFFB8E0F348844208D101210220FFF7C4
:1037B000A2FF00210220FFF79EFFACE0EE4884420A
:1037C00008D101210420FFF796FF00210420FFF714
:1037D00092FFA0E0E948844208D101210820FFF7C8
:1037E0008AFF00210820FFF786FF94E0E448844226
:1037F00008D101211020FFF77EFF00211020FFF7E4
:103800007AFF88E0DF48844208D101212020FFF7B9
:1038100072FF00212020FFF76EFF7CE0DA4884422F
:1038200008D101214014FFF759FF00216014FFF770
:1038300055FF70E0D548844209D10121C804FFF743
:103840004DFF00214FF40020FFF748FF63E0D04810
:10385000844209D101210805FFF740FF00214FF400
:103860008010FFF73BFF56E0CA48844209D101218E
:103870004805FFF733FF00214FF40010FFF72EFF3C
:1038800049E0C548844208D101214020FFF733FFB9
:1038900000214020FFF72FFF3DE0C048844208D1BF
:1038A00001218020FFF727FF00218020FFF723FF61
:1038B00031E0BB48844208D101218015FFF71BFF8E
:1038C0000021A015FFF717FF25E0B648844209D173
:1038D00001210804FFF702FF00214FF48030FFF7B9
:1038E000FDFE18E0B048844209D101214804FFF7E9
:1038F000F5FE00214FF40030FFF7F0FE0BE0AB487F
:10390000844208D101218804FFF7E8FE00214FF42A
:103910008020FFF7E3FE10BD00220288944B9842FE
:103920000ED0994B98420BD0B0F1804F08D0914BFC
:10393000984205D0904B984202D0904B984204D1C7
:103940004FF68F731A404B881A438D4B984207D01D
:103950008C4B984204D04FF6FF431A40CB881A4351
:1039600002808B8883850B880385814B98420BD01E
:10397000854B984208D08B4B984205D08A4B984291
:1039800002D08A4B984201D10B7A038601238382AD
:10399000704770B5002400220023058C4FF6FE7698
:1039A00035400584028C8388048B4FF68F752C403C
:1039B000B51E2C400D882C43751E2A400D892A43C4
:1039C0004D882A436A4DA8420BD06F4DA84208D0BB
:1039D000744DA84205D0744DA84202D0734DA84240
:1039E00013D14FF6F7752A404D892A434FF6FB75E0
:1039F0002A408D882A434FF6FF652B404FF6FF552E
:103A00002B408D892B43CD892B4383800483CD8824
:103A10008586028470BD70B5002400220023058CC9
:103A20004FF6EF7635400584028C8388048B48F688
:103A3000FF752C404FF6FF452C400D884FF6FF7662
:103A400006EA05252C434FF6DF752A400D8906EA64
:103A500005152A434D8806EA05152A43444DA84218
:103A600002D0494DA8421DD14FF67F752A404D899D
:103A70004FF6FF7606EA05152A434FF6BF752A4032
:103A80008D8806EA05152A434FF6FF352B404FF285
:103A9000FF752B408D8906EA85052B43CD8906EA03
:103AA00085052B4383800483CD880587028470BD00
:103AB00070B5002400220023058C4FF6FF663540C8
:103AC0000584028C8388848B4FF68F752C404FF6CB
:103AD000FC752C400D882C434FF6FF552A400D896C
:103AE0004FF6FF7606EA05252A434D8806EA0525A6
:103AF0002A431F4DA84202D0234DA8421DD14FF2A8
:103B0000FF752A404D894FF6FF7606EA05252A43C0
:103B10004FF6FF352A408D8806EA05252A434EF6E2
:103B2000FF752B404DF6FF752B408D8906EA051574
:103B30002B43CD8906EA05152B4383808483CD88EA
:103B40008587028470BD70B5002200230024058C97
:103B50004EF6FF7635400584038C8488828B48F6C8
:103B6000FF752A404FF6FF452A400D8820E00000EF
:103B7000002C01400004004000080040000C004000
:103B8000001000400014004000340140004C01408F
:103B9000005001400054014000180040001C00404B
:103BA0000020004000400140004401400048014026
:103BB0004FF6FF7606EA05252A434DF6FF752B40A2
:103BC0000D8906EA05352B434D8806EA05352B435A
:103BD000FA4DA84202D0FA4DA84208D14BF6FF7523
:103BE0002C408D894FF6FF7606EA85152C4384809C
:103BF0008283CD88A0F84050038470BD828B4FF241
:103C0000FF331A408283828B4FF6FF7303EA01234E
:103C10001A4382837047F0B50C46154600220021F6
:103C20000026078C4EF6FF7C07EA0C070784828B80
:103C3000018C4FF6FF7707EA043640F6FF473A401B
:103C40004FF6FF7707EA05273A434FF6FF7707EA73
:103C500003373A43D94FB8420ED0D94FB8420BD0B0
:103C6000B0F1804F08D0D74FB84205D0D64FB842F8
:103C700002D0D64FB84206D14DF6FF77394046F410
:103C80008057394305E047F6FF57394044F48057E1
:103C9000394382830184F0BD828B4FF6F3731A405F
:103CA0008283828B0A4382837047F0B50C461546A7
:103CB000002200210026078C4FF6FF6C07EA0C0754
:103CC0000784828B018C4FF6FF7707EA04264FF6B4
:103CD0000C773A404FF6FF7707EA03172F433A4332
:103CE000B64FB8420ED0B64FB8420BD0B0F1804FAD
:103CF00008D0B44FB84205D0B34FB84202D0B34F4A
:103D0000B84206D14FF6FF57394046F48077394321
:103D100005E04FF2FF57394044F4807739438283FE
:103D20000184F0BD028B4FF2FF331A400283028BF5
:103D30004FF6FF7303EA01231A4302837047F0B57D
:103D40000C461546002200210026078C4FF6EF7C1A
:103D500007EA0C070784028B018C4FF6FF7707EA0E
:103D6000041640F6FF473A404FF6FF7707EA03375D
:103D70003A434FF6FF7707EA05273A438F4FB84299
:103D80000ED08F4FB8420BD0B0F1804F08D08D4F7E
:103D9000B84205D08C4FB84202D08C4FB84206D101
:103DA0004FF6DF77394046F01007394305E04FF60C
:103DB0005F77394044F01007394302830184F0BD36
:103DC000028B4FF6F3731A400283028B0A4302837D
:103DD0007047F0B50C46154600220021068C4FF6C0
:103DE000FE773E400684028B018C4FF60C76324003
:103DF0007E1C06EA03162E433243704EB0420ED0AC
:103E00006F4EB0420BD0B0F1804F08D06D4EB04233
:103E100005D06D4EB04202D06C4EB04206D14FF686
:103E2000FD76314044F00106314305E04FF6F5766A
:103E3000314044F00106314302830184F0BD70B586
:103E400005460C465D4885420ED05D4885420BD044
:103E5000B5F1804F08D05B48854205D05A4885426D
:103E600002D05A48854200D100E000BF208850B9F6
:103E70002389A28861882846FFF7ABFFE18828469E
:103E8000FFF79EFF25E0208804280AD12389A28815
:103E900061882846FFF753FFE1882846FFF742FF75
:103EA00017E0208808280AD12389A288618828463B
:103EB000FFF7FBFEE1882846FFF7EEFE09E02389C5
:103EC000A28861882846FFF7A6FEE1882846FFF70A
:103ED00095FE70BD2DE9F04105460C4600260127F0
:103EE000608808B9022600E00026A088012801D1D8
:103EF000022700E001272088A0B92389A2886188D1
:103F00002846FFF766FFE1882846FFF759FF238917
:103F10003A4631462846FFF712FFE1882846FFF768
:103F200001FF13E02389A28861882846FFF707FF75
:103F3000E1882846FFF7F6FE23893A4631462846AF
:103F4000FFF747FFE1882846FFF73AFFBDE8F08119
:103F50000A884B881A438B881A43CB881A430B89EB
:103F60001A434B891A438B891A43A0F8442070479F
:103F70004FF6FF71818000210180C1804180017274
:103F800070470021018041808180C1800181418191
:103F90008181C181704700210180418001218180A0
:103FA0000021C18001817047002101804180818012
:103FB000C18001814181818170470000002C014056
:103FC000003401400004004000080040000C0040A4
:103FD00021B1028842F00102028004E002884FF61B
:103FE000FE731A400280704731B1B0F8442042F4A9
:103FF0000042A0F8442005E0B0F84420C2F30E02CD
:10400000A0F8442070471AB183890B43838102E0F2
:1040100083898B43838170478182704741EA020321
:10402000A0F8483070471AB183890B43838102E0BE
:1040300083898B438381704701894FF6F872114061
:10404000018170470A46002101894FF68F7319409C
:1040500011430181704730B504460D46294620467C
:10406000FFF7F0FF208940F00700208130BD2DE9E7
:10407000F04104460D4616461F46602D06D13B46CC
:10408000012231462046FFF75AFE05E03B46012259
:1040900031462046FFF79DFE29462046FFF7D2FF16
:1040A000208940F007002081BDE8F08130B50C4642
:1040B00000210189C9B24FF6FF7505EA03251543B2
:1040C00025432943018130BD2DE9F04105460E46C7
:1040D00017469846002443463A4631462846FFF79D
:1040E000E5FF2C894FF6F870044044F007044FF6C2
:1040F0008F70044044F070042C81BDE8F081F0B56D
:1041000004460D4616461F463B4632462946204683
:10411000FFF7CCFF208940F480402081F0BD01856D
:10412000828270470A46002101884FF68F7319403A
:10413000114301807047F0B50C4615461E4600211C
:10414000002200230189028B038C4FF6F877394057
:1041500021434FF6FC473A4040F201173A434FF6ED
:10416000DD773B404FF6FF7707EA06172F433B43C7
:10417000018102830384F0BD0A460021018B4FF6C2
:104180008F7319401143018370470A460021018B48
:1041900048F6FF7319404FF6FF7303EA02231943F1
:1041A000018370470A460021818B4FF68F731940B7
:1041B0001143818370470A460021818B48F6FF73C3
:1041C00019404FF6FF7303EA0223194381837047B6
:1041D00021B1028842F08002028004E002884FF69A
:1041E0007F731A400280704721B1828842F0040236
:1041F000828004E082884FF6FB731A408280704709
:1042000021B1828842F00802828004E082884FF661
:10421000F7731A408280704721B1828842F0010210
:10422000828004E082884FF6FE731A4082807047D5
:104230000A460021018B4FF6F773194011430183A1
:1042400070470A460021018B4FF2FF7319404FF669
:10425000FF7303EA02231943018370470A460021D2
:10426000818B4FF6F77319401143818370470A46DB
:104270000021818B4FF2FF7319404FF6FF7303EA61
:1042800002231943818370470A460021018B4FF6B0
:10429000FB7319401143018370470A460021018BCB
:1042A0004FF6FF3319404FF6FF7303EA0223194319
:1042B000018370470A460021818B4FF6FB7319403A
:1042C0001143818370470A460021818B4FF6FF33EB
:1042D00019404FF6FF7303EA0223194381837047A5
:1042E0000A460021018B4FF67F7319401143018369
:1042F00070470A460021018BC1F30E014FF6FF7390
:1043000003EA02231943018370470A460021818B87
:104310004FF67F7319401143818370470A4600218D
:10432000818BC1F30E014FF6FF7303EA0223194399
:10433000818370470A460021018C4FF6FD731940B6
:104340001143018470470A460021018C4FF6F77330
:1043500019401143018470470A460021018C4FF631
:10436000DF7319404FF6FF7303EA02131943018408
:1043700070470A460021018C4FF67F7319404FF6B3
:10438000FF7303EA02131943018470470A460021B0
:10439000018C4FF6FF5319404FF6FF7303EA0223D7
:1043A0001943018470470A460021018C4FF2FF73C4
:1043B00019404FF6FF7303EA022319430184704743
:1043C0000A460021018C4DF6FF7319404FF6FF732A
:1043D00003EA023319430184704730B500230124F6
:1043E0008C40A3B2048C9C430484048C02FA01F533
:1043F000ADB22C43048430BD30B5002304248C407E
:10440000A3B2048C9C430484048C02FA01F5ADB27F
:104410002C43048430BD70B50346002000241846A8
:10442000183001258D40ACB21D8CA5431D8409B107
:10443000082909D100EB6100056825F070050560C9
:104440000568154305600EE00D1FC5F34E052844B1
:10445000056825F4E045056005684FF6FF7606EA35
:1044600002263543056070BD21B1028842F0020288
:10447000028004E002884FF6FD731A400280704704
:1044800021B1028842F00402028004E002884FF663
:10449000FB731A400280704721B1828842F080028B
:1044A000828004E082884FF67F731A4082807047D2
:1044B00002884FF6F7731A40028002880A4302808E
:1044C000704782884FF68F731A40828082880A4331
:1044D0008280704702894FF6F8731A400281028980
:1044E0000A430281704702894FF67F731A400281A6
:1044F00002890A4302817047818470478185704731
:10450000818670470187704781877047A0F8401007
:10451000704702884FF6FF431A40028002880A4320
:10452000028070470146888E70470146088F7047A9
:104530000146888F70470146B1F840007047014638
:10454000888C70470146088D704702460020138A08
:104550000B400BB1012000E000207047CA430282EB
:10456000704730B50246002000230024158A05EA72
:104570000103958905EA010413B10CB1012000E0A3
:10458000002030BDCA4302827047000010B50446C7
:10459000FB48844209D101218803FFF79FF80021DD
:1045A0004FF48040FFF79AF832E0F648844209D190
:1045B00001214804FFF79FF800214FF40030FFF776
:1045C0009AF825E0F048844209D101218804FFF7D8
:1045D00092F800214FF48020FFF78DF818E0EB48A7
:1045E000844209D10121C804FFF785F800214FF466
:1045F0000020FFF780F80BE0E548844208D1012154
:104600000805FFF778F800214FF48010FFF773F8E2
:1046100010BD2DE9F04786B005460E460024A2469F
:1046200000BFA1460027B08900B100BF2F462C8AE9
:104630004CF6FF700440F08804432C82AC894EF69F
:10464000F3100440B088318908437189084304435A
:10465000AC81AC8A4FF6FF400440B0890443AC8281
:1046600001A8FEF7B4FFC648874202D1DDF810A0CA
:1046700001E0DDF80CA0A88900F4004040B10AEB8D
:10468000CA0000EB0A1031684900B0FBF1F807E0FE
:104690000AEBCA0000EB0A1031688900B0FBF1F8A0
:1046A0006420B8FBF0F004012009642101FB1089AB
:1046B000A88900F4004040B1322000EBC900B0FBF3
:1046C000F1F000F00700044308E0322000EB09108D
:1046D0006421B0FBF1F000F00F0004432C8106B020
:1046E000BDE8F0874FF41651016000218180C18040
:1046F00001810C21418100218181704710B5024662
:104700000020108A4FF2FF0318400B884C88234387
:104710008C882343CC8823431843108210BD00218A
:10472000018041808180C180704721B1828942F43B
:104730000052828104E082894DF6FF731A40828123
:104740007047F0B50346002400260025002040F6FF
:104750006A17B94200D100BF1846C1F3421401F0F4
:104760001F06012707FA06F5012C01D10C3004E0E1
:10477000022C01D1103000E014301AB107682F4329
:10478000076002E00768AF430760F0BD1AB1838A93
:104790000B43838202E0838A8B4383827047028AC1
:1047A0004FF6F0731A400282028A0A43028270476F
:1047B00082894FF2FF731A40828182890A43828183
:1047C000704721B1828942F00202828104E082892D
:1047D0004FF6FD731A4082817047028A4FF6DF73ED
:1047E0001A400282028A0A430282704721B1028A79
:1047F00042F48042028204E0028A4BF6FF731A40C0
:1048000002827047C1F3080282807047014688889F
:10481000C0F308007047818941F001018181704730
:10482000028BD2B20283028B42EA012202837047DA
:10483000028B02F47F420283028B0A430283704799
:1048400021B1828A42F02002828204E0828A4FF6FD
:10485000DF731A408282704721B1828A42F01002CF
:10486000828204E0828A4FF6EF731A408282704798
:1048700021B1828A42F00802828204E0828A4FF6E5
:10488000F7731A408282704721B1828942F4004254
:10489000828103E08289C2F30E028281704721B1D6
:1048A000828A42F40062828204E0828A4FF2FF73BD
:1048B0001A4082827047828A4FF6FB731A408282C6
:1048C000828A0A438282704721B1828A42F00202C0
:1048D000828204E0828A4FF6FD731A40828270471A
:1048E00002460020B1F5007F00D100BF13880B40C5
:1048F0000BB1012000E00020704701F40072B2F516
:10490000007F00D100BFCA430280704770B50246E5
:10491000002400230025002040F66A16B14200D191
:1049200000BFC1F3421501F01F03012606FA03F38D
:10493000012D02D19689334006E0022D02D1168A5C
:10494000334001E0968A33400C12012606FA04F443
:104950001688344013B10CB1012000E0002070BD76
:1049600010B50022002340F66A14A14200D100BF16
:104970000A1201249440A3B2DC43048010BD00005D
:10498000003801400044004000480040004C004016
:104990000050004001460020FE4A106800F0380038
:1049A000084310607047FB49096821F00801F94A83
:1049B000116011460968014311607047F5490968A3
:1049C00021F01001F34A116011460968014311609A
:1049D0007047F148EF494860F04848607047EE483A
:1049E000EC494860ED4848607047EA48006940F08B
:1049F0008000E84908617047E648006940F080009F
:104A0000E449086170470420E249C96801F00101E6
:104A100009B101200EE0DF49C96801F0040109B1C4
:104A2000022007E0DB49C96801F0100109B1032049
:104A300000E00420704700B502460423FFF7E3FFBF
:104A4000034603E0FFF7DFFF0346521E012B01D1AF
:104A5000002AF7D102B90523184600BD30B5044637
:104A600004254FF43020FFF7E6FF0546042D17D14B
:104A7000C848006940F00200C64908610846446120
:104A8000006940F0400008614FF43020FFF7D3FF89
:104A90000546C048006941F6FD710840BD490861FE
:104AA000284630BD10B504244FF43020FFF7C3FF73
:104AB0000446042C16D1B748006940F00400B549FB
:104AC00008610846006940F0400008614FF430205A
:104AD000FFF7B1FF0446AF48006941F6FB7108409B
:104AE000AC490861204610BD00B502460423FFF71B
:104AF0008AFF034603E0FFF786FF0346521E012BA1
:104B000001D1002AF7D102B90523184600BD10B51E
:104B100004244FF43020FFF7E7FF0446042C16D19D
:104B20009C48006940F004009A4908610846006901
:104B300040F0400008614FF43020FFF7D5FF0446F5
:104B40009448006941F6FB7108409249086120468B
:104B500010BD00208F49C96901F0020109B101208F
:104B600000E00020704730B5A5250424FFF7F1FFD1
:104B700000B100254FF43020FFF75DFF0446042C00
:104B80003AD185488349886084488860084600692E
:104B900040F0200008610846006940F040000861CC
:104BA0004FF43020FFF747FF0446042C1BD179480F
:104BB000006941F6DF7108407649086108460069DE
:104BC00040F01000086176480580E002FFF733FFEF
:104BD0000446052C10D06F48006941F6EF7108407B
:104BE0006C49086108E0052C06D06A48006941F666
:104BF000EF71084067490861204630BD78B5064628
:104C00000C46042500200090E802FFF714FF05463B
:104C1000042D24D15F48006940F001005D4908611E
:104C20003480E802FFF707FF0546042D10D1B01CC1
:104C30000090200C00990880E802FFF7FCFE054672
:104C40005448006941F6FE7108405249086106E087
:104C50005048006941F6FE7108404E4908612846F7
:104C600078BD70B504460D460426F002FFF7E3FE5A
:104C70000646042E11D14748006940F0010045491D
:104C800008612580F002FFF7D6FE0646414800691C
:104C900041F6FE7108403F490861304670BD70B56D
:104CA00005460E460424E002FFF7C5FE0446042C28
:104CB00017D1394837498860384888600846006904
:104CC00040F0100008612E80E002FFF7B4FE0446B9
:104CD000052C06D02F48006941F6EF7108402D4998
:104CE0000861204670BD2DE9F04304464FF6FF767B
:104CF0003746B046B1460425E443E6B2C4F307277D
:104D0000C4F307484FEA1469E802FFF794FE05462A
:104D1000042D49D120481F498860204888600846F2
:104D2000006940F010000861FF2E06D01C480830D2
:104D30000680E802FFF77FFE0546042D08D1FF2F0D
:104D400006D017480A300780E802FFF774FE0546D0
:104D5000042D0AD1B8F1FF0F07D011480C30A0F88C
:104D60000080E802FFF767FE0546042D0AD1B9F17D
:104D7000FF0F07D00A480E30A0F80090E802FFF7B6
:104D80005AFE0546052D0FD00248006941F6EF7125
:104D9000084007E00020024023016745AB89EFCDC2
:104DA00000F8FF1F664908612846BDE8F08330B56A
:104DB000054604244FF43020FFF73DFE0446042C42
:104DC00041D160485E4988605F4888600846006954
:104DD00040F0200008610846006940F0400008618A
:104DE0004FF43020FFF727FE0446042C22D154480C
:104DF000006941F6DF7108405149086108460069C1
:104E000040F0100008611DB100205049088002E008
:104E1000A5204E4908804FF43020FFF70CFE0446D1
:104E2000052C10D04648006941F6EF71084044490E
:104E3000086108E0052C06D04148006941F6DF71A1
:104E400008403F490861204630BDF0B505460E4692
:104E5000174604243B483A4988603B488860E00292
:104E6000FFF7E9FD0446042C19D13548006940F0EC
:104E700010003349086147F0F800304328433349B4
:104E8000891C0880E002FFF7D6FD0446052C06D0F9
:104E90002B48006941F6EF71084029490861204616
:104EA000F0BD2748C069800870472548006A7047F0
:104EB00000202349096801F0200109B1012000E028
:104EC0000020704729B11E4A126902431C4B1A6127
:104ED00004E01B4A12698243194B1A61704701466C
:104EE0000020012908D1164AD26902F001020AB154
:104EF000012008E0002006E0114AD2680A400AB109
:104F0000012000E0002070470D49C8607047042070
:104F10000B49C96801F0010109B101200EE00849FF
:104F2000C96801F0040109B1022007E00449C96819
:104F300001F0100109B1032000E0042070470000D7
:104F40000020024023016745AB89EFCD00F8FF1F29
:104F5000F0B480EA0102D40F4200B2EB410F02D25A
:104F60000246084611464A0042D0C30DDDB2C1F3E5
:104F7000C752AD1A202D35DAC1F3160141F40002F3
:104F800004B15242C5F1200602FA06F12A4110444A
:104F9000B3EBD05F23D0C4B1012DA0EBC35009DC2B
:104FA000F0BC4FF0004202EAC352DBB200F5000051
:104FB00000F0BABA400000F1807000EBC350A0F1DD
:104FC000807040EAD170490009E0490841EAC071A7
:104FD000A0EBC35000F50000400800EBC350F0BC4C
:104FE00000F099BA6142012202EB4101001BF6E791
:104FF000F0BC704781F00041AAE780F00040A7E7CD
:1050000080EA010210B502F00043400022D04A00BD
:105010001FD0010E01EB1261C0F35600C2F356021D
:1050200040F4000042F40002A0FB022000047F399B
:10503000140400D0401C50EA124001D44000491E24
:10504000C2B20C0604EBD010401C4008802A02D0EB
:1050500003E0002010BD20F00100002900DA00204C
:10506000184310BD30B480EA010202F0004530F070
:10507000004221F0004013D090B1C30DD40DC2F313
:105080001601C0F31600E41A41F4000140F40002D6
:105090007D34914201D3641C00E04900002C02DA07
:1050A00030BC002070474FF400000023914201D330
:1050B000891A034340084FEA4101F7D151B19142A7
:1050C00002D14FF0004105E002D24FF0010101E0B2
:1050D0006FF0010103EBC450284430BC00F01BBA50
:1050E0002DE9FE4F804681EA0300C00F0C46009078
:1050F00021F0004123F00045B8EB0200A94105D2A0
:105100004046214690461C460B46024623F000408E
:10511000104347D0270DC7F30A00C3F30A5102908A
:10512000401A019040286BDAC3F3130040F4801B4F
:105130000098924620B10023D2EB030A63EB0B0BDD
:1051400001985946C0F14002504600F0B3F90646B6
:105150000D4650465946019A00F0CBF910EB080075
:105160006141002487EA115284EAE7731A4340D070
:10517000009A62B3019A012A4FEA075215DC001B1C
:1051800061EB02014FF0004202EA0752CDE9004212
:10519000001C41F5801132462B4600F002FA03B0A4
:1051A000BDE8F08F40462146F9E7001B61EB0201A4
:1051B000001C41F5801300185B412018A2F5001770
:1051C00047EB030140EAD570B6196D4111E06D0857
:1051D0004FEA360645EAC0754FEA0752001B61EBFD
:1051E0000201001C41F5801149084FEA3000001906
:1051F000514132462B4603B0BDE8F04F00F0C2B932
:105200000098012240000023D0EB020263EBE07320
:10521000009821464FEAE074B8EB000061EB04010E
:10522000E9E783F000435BE781F0004158E72DE9AF
:10523000FE4F81EA030404F0004421F00041009491
:105240004FF0000B23F0004350EA01045ED052EA15
:1052500003045BD0C3F30A54C1F30A552C44A4F2EF
:10526000F3340194A0FB0254C1F3130141F4801103
:10527000C3F3130343F4801301FB024400FB034E0A
:10528000840A970A44EA815447EA8357A4FB0768D3
:1052900002958D0A05FB07854FEA932C04FB0C54FD
:1052A0002705029D4FEA065847EA1637B5EB080571
:1052B0006EEB070C870E920E47EA811742EA8312C3
:1052C000A7FB0201B6EB0B0164EB00042B0D43EAD4
:1052D0000C335E1844EB1C50DA465146E7FB0201E2
:1052E000C5F313044FEA0B3343EA14534FEA043275
:1052F000019C43EA0603A4F10C040294009CCDE94E
:1053000000B400F04EF903B0BDE8F08F0020014674
:10531000F9E72DE9F04D81EA030404F0004B21F098
:10532000004514464FF0000A23F0004150EA050200
:1053300020D054EA01021DD0C5F30A570246C5F336
:105340001303C1F31300C1F30A5640F4801543F46C
:105350008013A7EB0608101BD64608F2FD3873EB46
:10536000050002D308F1010801E092185B41B8F191
:10537000000F03DA00200146BDE8F08D00204FF455
:105380008011064684460EE0171B73EB050705D314
:10539000121B63EB050306434CEA010C49084FEA74
:1053A000300092185B4150EA0107EDD152EA030048
:1053B00012D082EA040083EA0501084305D0101BDD
:1053C000AB4106D20122002306E000224FF0004349
:1053D00002E06FF0010253101AEB06004CEB08518B
:1053E00010EB0A0041EB0B01BDE8F04D00F0CAB82C
:1053F000C10F80EAE0700844CA079623002100F03C
:1054000093B870B5C1F30A5201F000450024C1F30E
:10541000130140F2FF3341F480119A4201DA002077
:1054200070BD40F233439A42A2F2334203DC52424F
:1054300000F04FF800E090402C43F1D0404270BDA6
:1054400000F0004230F000400AD0C10D01F560715B
:10545000C0F3160042EA0151C208400711437047E9
:1054600000200146704701F0004330B421F00041B4
:1054700050EA010206D00A0DA2F56072C1F31301D1
:10548000002A02DC30BC00207047440F44EAC1040B
:10549000C100E01830BC00EBC25000F03CB8000086
:1054A000002801DBC0F10040002901DBC1F100410F
:1054B00081427047202A04DB203A00FA02F10020E2
:1054C00070479140C2F1200320FA03F31943904042
:1054D0007047202A04DB203A21FA02F000217047AD
:1054E00021FA02F3D040C2F120029140084319464C
:1054F0007047202A06DBCB17203A41FA02F043EA34
:10550000E07306E041FA02F3D040C2F1200291407C
:105510000843194670470029A8BF7047401C49003E
:1055200008BF20F00100704710B4B0FA80FC00FA08
:105530000CF050EA010404BF10BC704749B1CCF133
:10554000200421FA04F411FA0CF118BF01212143BF
:105550000843A3EB0C01CB1D4FEA00614FEA10207A
:1055600042BF002010BC704700EBC350104400291C
:10557000A4BF10BC7047401C490008BF20F00100C8
:1055800010BC704710B5141E73F1000408DA401CFB
:1055900041F1000192185B411A4301D120F0010052
:1055A00010BD2DE9F04D92469B4611B1B1FA81F242
:1055B00002E0B0FA80F220329046FFF77BFF04460B
:1055C0000F4640EA0A0041EA0B0153465A46084397
:1055D00013D0114653EA010019D0C8F140025046D9
:1055E000FFF777FF05460E46504659464246FFF7FD
:1055F00061FF084305D0012004E020463946BDE89C
:10560000F08D0020054346EAE0762C4337430A98A4
:105610006305E40AA0EB08000022FD0A44EA4754AF
:105620000A3002D500200146E9E701051019694159
:10563000DDE9084500196941BDE8F04DA2E770B504
:1056400021F0004303430CD0C1F30A550024D5EBED
:10565000040564EB0403D617AD1AB34102DB002046
:10566000014670BD201841EB025170BD2DE9F04D8F
:1056700000231A461B1A8A4103DB00200146BDE8BD
:10568000F08DC1F30A52C1F3130141F480154FF0BC
:10569000000BD10702D100186D41521E00270446AD
:1056A00040F2FF11384601EB620A3E468046024650
:1056B00000204FF48011FFF70CFFC2197141BB1895
:1056C00046EB0100B4EB030C75EB000C04D3E41AB9
:1056D00065EB000517460E46241908F101006D41DF
:1056E00080463428E3DDF91946EB0600091BA84182
:1056F00003D24FF0FF32134601E0002213461BEBAA
:10570000070046EB0A51BDE8F04DFFF73BBF000034
:10571000064C074D06E0E06840F0010394E80700FE
:1057200098471034AC42F6D3FAF7E4FCA85F0008BF
:10573000C85F0008490050EAC12018BF04204A0D84
:1057400018BF40F0010040F2FF72B2EB515F08BF9A
:1057500040F00200012808BF052070472DE9F04104
:105760004F1E00EBC7010446D1E9000115461E4655
:1057700037F006020DD02A463346FFF758FD7F1E4C
:1057800004EBC703D3E90023FFF7AAFC37F00602B6
:10579000F1D1022F25D0042F13D0062F18BFBDE85A
:1057A000F0812A463346FFF742FDD4E90A23FFF78A
:1057B00097FC2A463346FFF73AFDD4E90823FFF762
:1057C0008FFC2A463346FFF732FDD4E90623FFF764
:1057D00087FC2A463346FFF72AFDD4E90423FFF766
:1057E0007FFC2A463346FFF722FDD4E90223FFF768
:1057F00077FC2A463346FFF71AFDD4E90023BDE8BB
:10580000F041FFF76DBC0122FFF719BFFFF768BC3D
:105810000022134610461146FFF77BBD024A0020C6
:105820001107FFF70CBF000001FDFFFF02E008C8F1
:10583000121F08C1002AFAD170477047002001E00A
:1058400001C1121F002AFBD1704700000149086006
:1058500070470000B40000202DE9F04D8D4F21F07D
:10586000004A86B005460C46BA452ADBAAEB07007B
:1058700028430AD08848824501DC1AD1CDB106B050
:105880002846BDE8F04DFFF7BEBF844A844B28464A
:10589000FFF7CDFC07460E46824A834B2846214639
:1058A000FFF7C5FC06B03A463346BDE8F04DFFF7BA
:1058B00017BC0120FFF7CAFF06B0BDE8F04DFFF7A7
:1058C000A7BF7A48824542DABAF1795F0BDA2846F7
:1058D000FFF730FF042808BFFFF7A0FF284606B0F7
:1058E0002146BDE8F08D2A460B461046FFF79FFC87
:1058F000834602466E480E460B4606217844FFF763
:105900002DFF5A463346FFF792FC804669488A4687
:105910005A46334604217844FFF720FF5A4633465F
:10592000FFF785FC00223B46FFF7DAFB02460B46F9
:1059300040465146FFF7EDFC2A462346FFF777FC29
:1059400006B02A462346BDE8F04DFFF7C9BB2846FE
:1059500024F0004100223D463B46FFF765FC4FF036
:10596000FF32FFF76CFE0646024653480F460B46D1
:1059700006217844FFF7F2FE32463B46FFF757FC1C
:10598000CDE900014D4832463B4604217844FFF7FB
:10599000E5FE32463B46FFF74AFC00222B46FFF766
:1059A0009FFB834602913046394600F05DFA8046FF
:1059B00043480D46504517DCDDE900015A46029B7D
:1059C000FFF7A7FC42462B46FFF731FC42462B4629
:1059D000FFF786FB0122FFF732FE304A304BFFF71C
:1059E00020FC304A304B4CE04FF0000A52460B4648
:1059F0004046FFF775FBCDE9031052462B46104693
:105A00001946FFF714FC32463B46FFF70DFCDDE973
:105A10000332FFF77EFC06460F46DDE900015A46D9
:105A2000029BFFF776FC83460091012230463946FF
:105A3000FFF705FE194A1A4BFFF7F6FB06460F461D
:105A4000012240462946FFF7FAFD5A46009BFFF720
:105A5000EEFB32463B46FFF7E4FB06460F460122CB
:105A600050462946FFF7EBFD0E4DDFF858802A46D9
:105A70004346FFF7D9FB32463B46FFF7D5FB2A46A4
:105A80004346FFF7D1FB002CD8BF81F0004106B0A0
:105A9000BDE8F08D0000F03F0000F07F075C14339C
:105AA00026A6913C182D4454FB21F93F0000E03F0D
:105AB000B8050000CE0500004205000058050000B2
:105AC0003333EF3FFB21E93F2DE9F84F04460D4604
:105AD00021F0004000917349814211DC72498842F3
